:10236B0090FFFE120454EEF0A3EFF085088385096D
:10237B0082E0FCA3E0FDD39400EC9400405BC2AF81
:10238B0090005012031C90001412003F2428F58279
:10239B00E43400F583C083C082E0FF900050120349
:1023AB001C90001512003FF4FEEF5ED082D083F03C
:1023BB007013900027E0FF90001612003FF4FEEF21
:1023CB005E900027F090005012031C90000FEC8DD4
:0F23DB00F012015AD2AF1221C090000202045436
:100F200090FFFF120454EBF090FFFF120454EDF019
:0E0F300090FFFF120454EFF090FFFA120454E9
:100F3E00900006120478E0D39400502D9000071212
:100F4E000478E0D394005021900008120478E0D386
:100F5E0094005015900009120478E0FEA3E0D3949B
:100F6E0000EE940050030210CE900007120478E0B9
:100F7E00FED3943B40057F510210D090000812041E
:100F8E0078E0D3943B40057F520210D090000912B6
:100F9E000478E0FCA3E0D394E7EC940340057F5380
:100FAE000210D0EEFF7E007C007D3C120485ECC06A
:100FBE00E0EDC0E0EEC0E0EFC0E090000612047875
:100FCE00E0FF7E007C0E7D10120485D0E0FBD0E0A9
:100FDE00FAD0E0F9D0E0F8120187C8ECC8C9EDC923
:100FEE00CAEECACBEFCB900008120478E0FFE4FC07
:100FFE00FDFE120187E47B19FAF9F8120194ECC098
:10100E00E0EDC0E0EEC0E0EFC0E090000912047821
:10101E00E0FEA3E0FFEF2414FFE43EFEE433FDE424
:10102E0033FCE47B19FAF9F8120194E47BE87A03B5
:10103E00F9F812021FD0E0FBD0E0FAD0E0F9D0E0D0
:10104E00F81201878508838509821202D3E4FBFA20
:10105E007901F88508838509821202C712021F9052
:10106E000004120478EEF0A3EFF085088385098260
:10107E00C083C0821202C7E4FDFCD082D08312026C
:10108E00D38508838509821202C712236B90000450
:10109E00120478E0FEA3E0D39400EE9400401D7E8F
:1010AE00807F0012236B7E807F0012236B900004E2
:1010BE0012047874FFF5F01200A080D17F00800238
:0210CE007F544D
:0610D00090000B02045425
:0F1E1F0090FFFD12045412035390FFFD12045460
:101E2E00900022E0D3940040097B007A00790002F2
:101E3E001EC2C2AF90000412031C8508838509825E
:101E4E0012035390000412031CE94A4B60129000D7
:101E5E000412031C9000041203CB900004120353CF
:101E6E00D2AF85088385098212031CE94A4B603B79
:101E7E0085088385098212031C740112006C900080
:101E8E000312047812031CEBC0E0EAC0E0E9C0E0E4
:101E9E0085088385098212031C9000041203FB85BA
:101EAE00088385098212031C12246685088385091E
:041EBE008212031C6D
:061EC2009000060204542A
:1012790090FFFE120454ECF0A3EDF090FFFD120470
:0A1289005412035390FFFD120454A9
:10129300900022E0D39400400E90000812047812CC
:1012A300031C740202140590000312047812031C39
:1012B300E94A4B700E90000812047812031C740460
:1012C30002140590000312047812031C1200266412
:1012D30001600E90000812047812031C74010214BA
:1012E30005C2AF90000312047812031C900004128D
:1012F30003CB8508838509821203538508838509F7
:101303008212031CE94A4B601E7B007A007900EBD2
:10131300C0E0EAC0E0E9C0E09000031204781203E1
:101323001C9000040213CF90005012031CE92411F7
:10133300F9E43AFA120026440212006C90000612F5
:101343000478E0FEA3E0FF90005012031C90000F0E
:10135300EE8FF012015A90000312047812031C124C
:1013630018C9D2AF1221C0C2AF90005012031C9013
:10137300000C1203CB850883850982120353850869
:101383008385098212031CE94A4B605D7B007A0066
:101393007900EBC0E0EAC0E0E9C0E090005012033E
:1013A3001C90000C1203FB90005012031C900011C0
:1013B300E412007E7B007A007900EBC0E0EAC0E033
:1013C300E9C0E090005012031C9000091203FBD205
:1013D300AF90000812047812031CE412006C850815
:1013E3008385098212031C80229000031204781261
:1013F300031C121B52D2AF90000812047812031C74
:0B140300740A12006C7B007A00790074
:06140E0090000B020454E3
:101A900090FFFD12045412035385088385098212B6
:101AA000031CE94A4B70057F04021B4C9000031293
:101AB000047812031CE94A4B70057F03021B4C8516
:101AC000088385098212031C120026640160047FCA
:101AD000018079C2AF90000112003F603090FFFF9B
:101AE0001204547402F090000412047812031C9043
:101AF000FFFD1204541203539000041204781203E1
:101B00001C1210D6D2AF1221C07F00803F850883FF
:101B100085098212031C9000041203CBE94A4B6032
:101B200006D2AF7F14802590000312047812031CA4
:101B3000EBC0E0EAC0E0E9C0E085088385098212D5
:101B4000031C9000041203FBD2AF7F00900006023A
:021B500004543B
:101F670090FFFE120454EEF0A3EFF090FFFD120471
:011F77005415
:101F7800900022E0D3940040087B007A007900802A
:101F880075C2AF90000412031C850883850982126C
:101F9800035390000412031CE94A4B60129000049A
:101FA80012031C9000041203CB900004120353D2B6
:101FB800AF85088385098212031CE94A4B602E8588
:101FC800088385098212031C740312006C900003B5
:101FD800120478E0FEA3E0FF8508838509821203D6
:101FE8001C900002EE8FF012015A122466850883B5
:061FF80085098212031CA2
:061FFE00900005020454EE
:1015590090FFFE120454ECF0A3EDF090FFFD12048D
:1015690054120353900022E0D39400400E900005DA
:1015790012047812031C74020216848508838509F3
:101589008212031CE94A4B700E900005120478126E
:10159900031C740402168485088385098212031CBE
:1015A9001200266403600E90000512047812031CD1
:1015B9007401021684C2AF85088385098212031C4F
:1015C9009000021200B6D39400E5F09400401990FF
:1015D900000274FFF5F01200EED2AF90000512047C
:1015E9007812031CE402168490005012031CE924AB
:1015F90011F9E43AFA120026440112006C90000332
:10160900120478E0FEA3E0FF90005012031C900042
:101619000FEE8FF012015A85088385098212031C87
:101629001218C9D2AF1221C0C2AF90005012031CC8
:1016390090001112003F30E01B8508838509821252
:10164900031C121B52D2AF90000512047812031C1E
:10165900740A80277B007A007900EBC0E0EAC0E0D9
:10166900E9C0E090005012031C9000091203FBD25C
:10167900AF90000512047812031CE412006C90006C
:0416890008020454FB
:101D740090FFFD12045412035385088385098212CF
:101D8400031CE94A4B70057F04021E1985088385EC
:101D9400098212031C120026640360047F0180750B
:101DA400C2AF90000112003F602D90FFFF12045457
:101DB4007401F07B007A00790090FFFD1204541244
:101DC400035390000412047812031C1210D6D2AFED
:101DD4001221C07F00803E85088385098212031C7E
:101DE4009000021200B6FFAEF0E4FCFD7BFF7AFF28
:101DF400F9F8D31202B140198508838509821203C8
:101E04001C900002E475F0011200EED2AF7F008056
:0B1E140004D2AF7F32900003020454A0
:1004E20090FFFF120454EDF090FFFF120454EFF05E
:0604F20090FFF612045415
:1004F80090000A120478E0FFC3940A4004EFB4FFA6
:100508000D90000B120478E0FEC3940A40057F2A80
:10051800020826C2AFEE75F003A4245CF582E43429
:1005280000F58312031CE94A4B6007D2AF7F28020B
:1005380008267B007A00790190000B120478E0FF0E
:1005480075F003A4245CF582E43400F583120353A8
:10055800D2AFEF131313541FFF900007120478EF64
:10056800F0900007120478E0247AF582E43401F56B
:1005780083E0FF900009120478EFF090000B12045A
:1005880078E05407FF900006120478EFF090000618
:10059800120478E0247AF582E43401F583E0FF90D0
:1005A8000008120478EFF0C2AF90000A120478E055
:1005B800B4FF1590005012031C90001212003FFF68
:1005C80090000A120478EFF090000A120478E0FF15
:1005D80075F003A4245CF582E43400F58312031C4F
:1005E800900003120478120353E94A4B700302087F
:1005F800057B007A007900EF75F003A4245CF5828E
:10060800E43400F5831203539000031204781203B4
:100618001C90001412003FFF2428F582E43400F5F2
:1006280083E0FE90001512003FFDEE5D60637428C4
:100638002FF582E43400F583EDF4FFEE5FF0701AD5
:10064800900027E0FF90000312047812031C90002A
:100658001612003FF45F900027F0900027E0FF900B
:100668000009120478E04F900027F0900007120468
:1006780078E02428F582E43400F583C083C082E062
:10068800FF900008120478E04FD082D083F0020770
:100698009790000312047812031C9000091203CBF0
:1006A800850883850982120353E94A4B70030207C0
:1006B8009790000312047812031C90001412003F54
:1006C800FF7E0085088385098212031CE92407F947
:1006D800E43AFAE92FF9EE3AFAEBC0E0EAC0E0E9C9
:1006E800C0E0120026FF90000312047812031C9049
:1006F800001512003FF45FFFD0E0F9D0E0FAD0E037
:10070800FBEF12006C703C85088385098212031C7C
:10071800E92401F9E43AFAEBC0E0EAC0E0E9C0E014
:10072800120026FF90000312047812031C90001692
:1007380012003FF45FFFD0E0F9D0E0FAD0E0FBEF21
:1007480012006C85088385098212031CE92401F9CB
:10075800E43AFA120026FF900009120478E04F12DA
:10076800006C85088385098212031CE92407F9E4D3
:100778003AFA900007120478E07E0029F9EE3AFA76
:10078800120026FF900008120478E04F12006C90C7
:10079800000312047812031C90000B120478E0FF87
:1007A80075F003A4245CF582E43400F58312035346
:1007B80090000312047812031C900012EF12007EBE
:1007C800900007120478E090001412007E90000652
:1007D800120478E090001312007E90000912047849
:1007E800E090001612007E900008120478E0900055
:1007F8001512007ED2AF1221C07F0080217B007AC3
:1008080000790090000B120478E075F003A4245CD2
:0E081800F582E43400F583120353D2AF7F293A
:0608260090000C020454D6
:0F14140090FFFD12045412035390FFFC12045476
:1014230090000D120478E0FED3940A40057F2A024F
:101433001553C2AFEE75F003A4245CF582E43400C7
:10144300F58312031CE94A4B600302154FFBFA793B
:101453000190000D120478E075F003A4245CF5827A
:10146300E43400F583120353D2AF90FFFE12045409
:10147300E4F0A3F090000C12047812031C90FFFD1B
:1014830012045412035390000C12047812031C909C
:10149300FFFD12045412035390000C12047812033C
:1014A3001C120D4B85088385098212035390FFFE9E
:1014B300120454E4F0A3F0FBFAF990FFFD12045474
:1014C30012035390FFFC1204541202DF00000000C9
:1014D30090FFFE120454E4F0A3F0FBFAF990FFFD31
:1014E30012045412035390000E12047812031C903A
:1014F300001B120478E0FF120ABF90000312047865
:10150300EFF0900003120478E07016C2AF90002B46
:10151300E004F0D2AF90002AE0B401261221C0808B
:1015230021C2AF7B007A00790090000D120478E0AD
:1015330075F003A4245CF582E43400F583120353AD
:10154300D2AF900003120478E0FF8004D2AF7F286B
:0615530090000E0204549A
:1017B20048017A0102040810204080610001820081
:1017C2000001000200010003000100020001000408
:1017D20000010002000100030001000200010005F7
:1017E20000010002000100030001000200010004E8
:1017F20000010002000100030001000200010006D6
:1018020000010002000100030001000200010004C7
:1018120000010002000100030001000200010005B6
:1018220000010002000100030001000200010004A7
:101832000001000200010003000100020001000794
:101842000001000200010003000100020001000487
:101852000001000200010003000100020001000576
:101862000001000200010003000100020001000467
:101872000001000200010003000100020001000655
:101882000001000200010003000100020001000447
:101892000001000200010003000100020001000536
:1018A2000001000200010003000100020001000427
:0F18B2000001000200010003000100020001001C
:06082C0090FFEF120454DE
:10083200120008E4900022F0900024F090002BF0C7
:1008420090002AF090002C1202DF000000009000BD
:10085200001202DF00000000E4900027F07B017A22
:10086200007928850883850982A3A312035385088A
:1008720083850982E4F0A3F0850883850982E0FE7E
:10088200A3E0C39402EE9400502185088385098277
:10089200A3A3E475F001120325E412006C8508831A
:1008A20085098275F0011200A080CDE4900025F048
:1008B200A3F0FBFAF9900056120353900050120372
:1008C20053900059120353850883850982E4F0A3EB
:1008D200F0850883850982E0FEA3E0FFC3940BEE56
:1008E2009400502B7B007A00790090005C75F00335
:1008F200EF120310EE75F003A42583F58312035360
:10090200850883850982E475F0011200A080C27B0C
:10091200017A00797D9000051204781203537B015D
:100922007A007994900008120478120353850883A0
:10093200850982E4F0A3F0850883850982E0FEA39D
:10094200E0C3940AEE9400504C900008120478120E
:10095200031CEBC0E0EAC0E0E9C0E090000512042D
:100962007812031C9000031203FB90000512047816
:10097200A3E475F0171200A0900008120478A3E413
:1009820075F0171200A0850883850982E475F001CD
:100992001200A080A27B007A007900EBC0E0EAC0DE
:1009A200E0E9C0E090000512047812031C900003F5
:1009B2001203FB7B017A00797D9000531203537A74
:1009C20000790790000B1204781203537B017A001E
:1009D200791090000E12047812035385088385095A
:1009E20082E4F0A3F0850883850982E0FEA3E0C3D8
:1009F2009402EE9400505990000B12047812031CDA
:100A0200E412006C90000E12047812031CEBC0E09A
:100A1200EAC0E0E9C0E090000B12047812031C90D7
:100A220000041203FB90000B120478A3E475F00992
:100A32001200A090000E120478A3E475F0091200CF
:100A4200A0850883850982E475F0011200A08095D3
:100A520090000B12047812031CE412006CFBFAF9EA
:100A6200EBC0E0EAC0E0E9C0E090000B12047812AB
:100A7200031C9000041203FB7B017A0079079000AB
:100A82000412035390FFFF120454740AF07B017A9C
:100A920000794F90FFFD1204541203537B007A0039
:100AA200790090FFFD1204541203537BFF7A2579DB
:070AB2005A1214141200098E
:060AB9009000110204543C
:1026B300C2AF900022E0C394FF5003E004F0D2AF16
:0126C30022F4
:10225100C2AF900022E0D394004003E014F090005C
:1022610022E07078900024E07072900027E02482D0
:10227100F582E43401F583E0900023F0E0FF2428A7
:10228100F582E43400F583E02482F582E43401F53B
:1022910083E0FEEF33333354F8FFEE2FFF90002637
:1022A100F0900025E06F6034A3E075F003A4245C96
:1022B100F582E43400F58312031C90005612035397
:1022C1009000001202C7EF2401FFE43EFEE43DFD51
:0F22D100E43CFC9000001202D3122660D2AF2230
:10269B0090002AE0B40110C2AF900024E0C394FF75
:0826AB005003E004F0D2AF225D
:1025D30090002AE064017021C2AF900024E0D394FC
:1025E300004014E014F0E0700B900022E07005D27C
:0A25F300AF0221C0D2AF22D2AF2206
:0623EA0090FFFE120454F6
:1023F00090002AE0706A900027E02482F582E4349D
:1024000001F583E0850883850982F0E0FF2428F543
:1024100082E43400F583E02482F582E43401F5831C
:10242000E0850883850982A3F0EF33333354F8FF46
:10243000850883850982A3E02F900026F09000256F
:10244000F075F003A4245CF582E43400F5831203F4
:102450001C90005612035390005012035312267F13
:062460009000020204548A
:0619C00090FFFD1204542B
:1019C6001226D390005912031C85088385098212BA
:1019D600035385088385098212031C9000121200A6
:1019E6003F640A7003021A8AC2AF90000F1200B653
:1019F60045F0607385088385098212031C90000FE9
:101A060074FFF5F01200EE45F0705C9000111200C4
:101A16003F20E340900027E0FF90001612003FFEB3
:101A2600EF4E900027F090001412003F2428F58214
:101A3600E43400F583C083C082E0FF85088385090E
:101A46008212031C90001512003FFEEF4ED082D08A
:101A560083F0801385088385098212031C90000F8A
:101A6600E475F00112015A85088385098212031C68
:101A76009000031203CB850883850982120353D293
:041A8600AF0219D8BA
:061A8A0090000302045469
:050003007E007FFC22DD
:0F10D60090FFFD12045412035390FFF8120454BC
:1010E50090000812047812031C90000112003F249E
:1010F50082F582E43401F583E0FF90000412047860
:10110500EFF0900004120478E0FF247AF582E434CD
:1011150001F583E0FE900006120478EEF0E924075D
:10112500F9E43AFA7E00E92FF9EE3AFA120026FFC1
:101135002482F582E43401F583E0FE900003120475
:1011450078EEF0900003120478E0FE247AF582E44C
:101155003401F583E0FD900005120478EDF0900070
:1011650004120478E0FD33333354F82EFE90000763
:10117500120478EEF0900005120478E0FCF45F129A
:10118500006C702090000812047812031CE92401F9
:10119500F9E43AFA120026FF900006120478E0F40A
:1011A5005F12006C900007120478E0FD75F003A44F
:1011B500245CF582E43400F58312031C85088385DD
:1011C500098212035385088385098212031C900046
:1011D5000FE4F5F012015A7B007A007900EBC0E0CC
:1011E500EAC0E0E9C0E085088385098212031C9006
:1011F50000091203FB90000B12047812031CEBC0CC
:10120500E0EAC0E0E9C0E085088385098212031C95
:1012150090000C1203FB85088385098212031CE9E3
:101225002411F9E43AFA120026FF90000E12047810
:10123500E0F45F12006C85088385098212031C9017
:10124500001112003F7024900027E0FF9000061265
:101255000478E04F900027F0900004120478E02411
:0E12650028F582E43400F583E04CF0CFEDCFA5
:0612730090000F0204547C
:1018C90090FFFD120454120353850883850982127F
:1018D900031CEBC0E0EAC0E0E9C0E090005012034D
:1018E9001C9000091203FB90005012031C90001475
:1018F90012003F2428F582E43400F583C083C082B6
:10190900E0FF90005012031C90001512003FF4FEF6
:10191900EF5ED082D083F07013900027E0FF900033
:101929001612003FF4FEEF5E900027F0900050126F
:10193900031C90001412003FFF7E0085088385096F
:101949008212031CE92407F9E43AFAE92FF9EE3A7D
:10195900FAEBC0E0EAC0E0E9C0E0120026FF90001F
:101969005012031C90001512003F4FFFD0E0F9D030
:10197900E0FAD0E0FBEF12006C850883850982123A
:10198900031CE92401F9E43AFAEBC0E0EAC0E0E912
:10199900C0E0120026FF90005012031C900016129E
:1019A900003F4FFFD0E0F9D0E0FAD0E0FBEF1200A2
:0719B9006C900003020454CE
:101B520090FFFD12045412035390005012031C9084
:101B6200001412003FFF7E0085088385098212035C
:101B72001CE92407F9E43AFAE92FF9EE3AFAEBC044
:101B8200E0EAC0E0E9C0E0120026FF900050120334
:101B92001C90001512003FF45FFFD0E0F9D0E0FA8C
:101BA200D0E0FBEF12006C70398508838509821240
:101BB200031CE92401F9E43AFAEBC0E0EAC0E0E9E7
:101BC200C0E0120026FF90005012031C9000161273
:101BD200003FF45FFFD0E0F9D0E0FAD0E0FBEF1273
:101BE200006C90005012031C900011E412007E7BE6
:101BF200007A007900EBC0E0EAC0E0E9C0E09000C2
:101C02005012031C9000091203FB900003020454BB
:0F24660090FFFD12045412035390FFFD12045413
:1024750090000312047812031C900001E412007E00
:10248500E92407F9E43AFA8508838509821203539A
:10249500850883850982E475F001120325E412009D
:1024A5006C85088385098275F001120325E4120005
:0124B5006CBA
:0624B60090000602045430
:0621C00090FFFF12045421
:1021C600C2AF900022E0707B900024E07075900012
:1021D60027E02482F582E43401F583E085088385CF
:1021E6000982F0E0FF2428F582E43400F583E02438
:1021F60082F582E43401F583E0FEEF33333354F89D
:10220600FFEE2FFF900026F0900025E06F6034A3CC
:10221600E075F003A4245CF582E43400F583120330
:102226001C9000561203539000001202C7EF2401BF
:10223600FFE43EFEE43DFDE43CFC9000001202D3C8
:0522460012231FD2AFBE
:06224B00900001020454A2
:10255A0090FFFD12045412035385088385098212E1
:10256A00031C850883850982120353C2AF90002C8D
:10257A001202C7EF2401FFE43EFEE43DFDE43CFC09
:0D258A0090002C1202D3D2AF1226D480DEB6
:100ABF0090FFFD12045412035390FFFF120454EFE2
:070ACF00F090FFFD1204543A
:100AD600C2AF90005312031C850883850982120356
:100AE6005385088385098212031CE94A4B70030269
:100AF6000D4185088385098212031C9000031203A9
:100B0600CB900053120353D2AF9000041204781214
:100B1600031CEBC0E0EAC0E0E9C0E0850883850974
:100B26008212031C12037C900003120478E0FF85F6
:100B3600088385098212031C900012EF12007E9032
:100B46000011E412007E90000FE4F5F012015A90B5
:100B5600001012047812031C90001012047812037D
:100B66005390000C1204781202C790000C120478FD
:100B76001202D390000712047812031C9000071289
:100B86000478120353900013120478E0FEA3E0FFEA
:100B9600900013120478EEF0A3EFF090000A12040E
:100BA60078E0FEA3E0FF90000A120478EEF0A3EFCF
:100BB600F0900003120478E0FF131313541FFE8510
:100BC600088385098212031C900014EE12007E90A1
:100BD600001412003F247AF582E43401F583E09094
:100BE600001612007EEF540790001312007E90004C
:100BF6001312003F247AF582E43401F583E0900075
:100C06001512007E7B007A007900EBC0E0EAC0E0B6
:100C1600E9C0E085088385098212031C9000091249
:100C260003FB7B007A007900EBC0E0EAC0E0E9C094
:100C3600E085088385098212031C90000C1203FBD1
:100C460085088385098212031C12263F8508838541
:100C5600098212031C1225FDC2AF8508838509820D
:100C660012031C900003120478E075F003A4245CC0
:100C7600F582E43400F58312035390005912031CE5
:100C8600EBC0E0EAC0E0E9C0E0850883850982128E
:100C9600031C9000031203FB7B007A007900EBC073
:100CA600E0EAC0E0E9C0E085088385098212031CFA
:100CB6009000061203FB90005912031CE94A4B6090
:100CC6001E85088385098212031CEBC0E0EAC0E09A
:100CD600E9C0E090005912031C9000061203FB8540
:100CE600088385098212031C900059120353900051
:100CF60027E0FF85088385098212031C90001612DF
:100D0600003FFEEF4E900027F090001412003F24A3
:100D160028F582E43400F583C083C082E0FF8508AD
:100D26008385098212031C90001512003FFEEF4EC8
:0F0D3600D082D083F0D2AF7F008004D2AF7F464F
:060D4500900015020454A9
:1022E000850883850982E0F581A3A881E0F6A3181B
:1022F000B80BF9C0A8C2AF858308858209D0A8D0E1
:10230000E03392AFD007D006D005D004D003D0027E
:10231000D001D000D0D0D082D083D0F0D0E022C085
:10232000E0C0F0C083C082C0D0C000C001C002C005
:1023300003C004C005C006C007C0A885088385097E
:1023400082E581C3940BF804C3C5829582500215BF
:1023500083F582C0A8C2AF858308858209D0A8E52D
:0B23600081F0A3D0E0F0D8FA0225972E
:0318C100010A0019
:100D4B0090FFFD12045412035390FFFD12045490B4
:100D5B00000C120478E0FEA3E0FF90000C12047864
:100D6B00EEF0A3EFF090000912047812031C850833
:100D7B0083850982120353850883850982A374FF37
:100D8B0075F0FD1200A090000612047812031CEB04
:100D9B00C0E0EAC0E0E9C0E0850883850982120360
:100DAB001C12037C850883850982A374FF75F0FEF2
:100DBB001200A090000312047812031CCEEACECFCF
:100DCB00E9CF85088385098212031CEE8FF012018F
:100DDB003B850883850982A374FF75F0FE1200A082
:100DEB0090000312047812031CCEEACECFE9CF8514
:100DFB00088385098212031CEE8FF012013B8508D4
:100E0B008385098274FFF5F012033C744112006C68
:100E1B0085088385098274FFF5F012033C74421236
:100E2B00006C85088385098274FFF5F012033C740E
:100E3B004812006C85088385098274FFF5F0120354
:100E4B003C744C12006C85088385098274FFF5F0A5
:100E5B0012033CE5D012006C85088385098274FF70
:100E6B00F5F012033CE412006C850883850982A31C
:100E7B0074FF75F0FD1200A09000061204781203A7
:100E8B001CEBC0E0EAC0E0E9C0E08508838509827D
:0C0E9B0012031C12037C85088385098269
:100EA70074FFF5F012033C740412006C8508838507
:100EB700098274FFF5F012033C740512006C850873
:100EC7008385098274FFF5F012033C740612006CE7
:100ED70085088385098274FFF5F012033C740712B5
:100EE700006C85088385098274FFF5F012033C7452
:100EF7008012006C740B2412FF85088385098274A5
:100F0700FFF5F012033CEF12006C85088385098218
:090F170012031C90000E020454A8
:10267F0012000A90002A7401F090005612031C12E7
:0C268F00035CCFE9CF8A088F090222E02B
:10259700AA08A9097B01EBC0E0EAC0E0E9C0E09026
:1025A700005012031C12037C12000A9000561203FB
:1025B7001C900050120353900026E0900025F01263
:0C25C700035CCFE9CF8A088F090222E0F4
:10266000C2AF850B8190005012031C12035CCFE9AE
:0F267000CF8A088F09743BC0E07423C0E0322288
:03000B0002209B35
:10209B00C0E0C0F0C083C082C0D0E8C0E0E9C0E0BF
:1020AB00EAC0E0EBC0E0ECC0E0EDC0E0EEC0E0EF7A
:1020BB00C0E01226B3900022E0B40121C0A8C2AF49
:1020CB0085810BC2AFAA08A9097B01EBC0E0EAC06E
:1020DB00E0E9C0E090005012031C12037C1219C0FF
:1020EB00122251900022E07017C2AF9000501203E1
:1020FB001C12035CCFE9CF8A088F09850B81D0A80E
:10210B00D0E0FFD0E0FED0E0FDD0E0FCD0E0FBD093
:10211B00E0FAD0E0F9D0E0F8D0D0D082D083D0F084
:03212B00D0E032CF
:10000E00E58954F04421F589758AF0758CF0D28C0F
:05001E00D2A9D2AF22BF
:0E26C400759850758DFD438780D2ACD28E2262
:10250E0090FFFF120454EFF090FFFE120454850862
:10251E0083850982A3A3E0F599850883850982E462
:10252E00F0A3F0850883850982E0FEA3E0C3941E24
:10253E00EE64809480500F850883850982E475F0DF
:0C254E00011200A080DD90000302045484
:1024BC0090FFFD12045412035390FFFF1204548535
:1024CC000883850982A312031C120026602E85083E
:1024DC0083850982A3E475F001120325120026FFFF
:1024EC0012250E850883850982E4F0850883850909
:1024FC0082E0C3941E50C8E004F080EF9000040208
:02250C00045475
:03002300021EC8F2
:101EC800C0E0C0F0C083C082C0D0E8C0E0E9C0E094
:101ED800EAC0E0EBC0E0ECC0E0EDC0E0EEC0E0EF4F
:101EE800C0E01226B3900022E0B40121C0A8C2AF1E
:101EF80085810BC2AFAA08A9097B01EBC0E0EAC043
:101F0800E0E9C0E090005012031C12037C309904F1
:101F1800C2998008309805C29885990A1222519072
:101F28000022E07017C2AF90005012031C12035C2D
:101F3800CFE9CF8A088F09850B81D0A8D0E0FFD0E0
:101F4800E0FED0E0FDD0E0FCD0E0FBD0E0FAD0E04D
:0F1F5800F9D0E0F8D0D0D082D083D0F0D0E032F2
:0100080022D5
:0100090022D4
:1025FD0090FFFD120454120353850883850982123E
:10260D00031C85088385098212035390000302047D
:01261D005468
:10261E0090FFFD120454120353850883850982121C
:10262E00031C85088385098212035390000302045C
:01263E005447
:01000A0022D3
:0126D20022E5
:10263F0090FFFD12045412035385088385098212FB
:10264F00031C85088385098212035390000302043B
:01265F005426
:0126D30022E4
:0126D40022E3
:0418C4004102850058
:1020040012082C9003C67431F0E4A3F0FEFF121FF3
:10201400679003C81203539003CC7432F0E4A3F026
:10202400FEFF121F679003CE1203539003D2743342
:10203400F0A314F07E007F00121F679003D41203F4
:10204400539003C812031C9003D81203539003CE79
:1020540012031C9003DB1203539003D412031C904D
:1020640003DE12035390FFFF120454E4F07B017A61
:102074000279C590FFFD1204541203537B007A00C9
:10208400790090FFFD1204541203537BFF7A1679F2
:072094008D1214140223EA6F
:10168D0090FFFD12045412035385088385098212BD
:10169D00031C85088385098212035312000E12263E
:1016AD00C490FFFF1204547401F0FB7A0379059086
:1016BD00FFFD1204541203537B017A0379C690FF88
:1016CD00FD1204541203537BFF7A1C79C5121414B6
:1016DD0090FFFF1204547402F07B017A0379459058
:1016ED00FFFD1204541203537B017A0379CC90FF52
:1016FD00FD1204541203537BFF7A1C79C512141486
:10170D0090FFFF1204547403F07B017A03798590E6
:10171D00FFFD1204541203537B017A0379D290FF1B
:10172D00FD1204541203537BFF7A1C79C512141455
:10173D0090FFFF1204547404F07B017A0379C59075
:10174D00FFFD1204541203537B017A0379D890FFE5
:10175D00FD1204541203537BFF7A1C7912121414D8
:10176D009000001202DF0000000090FFFE120454F2
:10177D00E4F0A3F07B02FDFF120F20B29090FFFE6C
:10178D00120454E4F0A3F07B02FDFF120F20B2917E
:10179D0090FFFE120454E4F0A3F07B02FDFF120F44
:0517AD0020B29280BB98
:0F1CC50090FFFD12045412035390FFFD120454BC
:101CD40090000312047812031C850883850982127C
:101CE400035385088385098212031CE92405F9E45A
:101CF4003AFA90FFFD1204541203539000031204A5
:101D04007812031C90000112003FFD7C0090000239
:101D14001203CB12155985088385098212031C12FC
:101D24000026FF24CE600714600E24027038900051
:101D34000512003F7030802B8508838509821203C9
:101D44001C90000512003F7006120026FF801485C7
:101D5400088385098212031C90000512003FB40A0F
:101D6400057F5412250E7E007F6412236B021CE64D
:0F1C120090FFFD12045412035390FFFD1204546F
:101C210090000312047812031C850883850982122F
:101C31000353A290E433900282F0A291E433A3F023
:101C4100A292E433A3F0900282E0701230900F85EB
:101C5100088385098212031C12035C121D74900211
:101C610083E0B4011520911285088385098212034E
:101C71001C9000031203CB121D7420921E9002854A
:101C8100E0B4011785088385098212031C900006C0
:101C91001203CB121D74E4900285F0900284E0706F
:101CA10006309203A304F0A290E433900282F0A2E2
:101CB10091E433A3F0A292E433A3F07E007F641297
:041CC100236B80828F
:0300000002212EAC
:10212E00787FE4F6D8FD75088075090075810B027D
:02213E00217B03
:10214000022004E493A3F8E493A34003F68001F291
:1021500008DFF48029E493A3F85407240CC8C333A0
:10216000C4540F4420C8834004F456800146F6DF6F
:10217000E4800B01020408102040809017B2E47E36
:10218000019360BCA3FF543F30E509541FFEE49364
:10219000A360010ECF54C025E060A840B8E493A32B
:1021A000FAE493A3F8E493A3C8C582C8CAC583CA56
:1021B000F0A3C8C582C8CAC583CADFE9DEE780BE0E
:0118C800001F
:10002600BB010689828A83E0225002E722BBFE02D8
:09003600E32289828A83E493220B
:10003F00BB010CE58229F582E5833AF583E0225076
:10004F0006E92582F8E622BBFE06E92582F8E222C0
:0D005F00E58229F582E5833AF583E49322DA
:10006C00BB010689828A83F0225002F722BBFE0173
:02007C00F3226D
:10007E00F8BB010DE58229F582E5833AF583E8F0B8
:10008E00225006E92582C8F622BBFE05E92582C864
:02009E00F2224C
:1000A000C5F0F8A3E028F0C5F0F8E58215827002EB
:0600B0001583E038F02288
:1000B600BB0110E58229F582E5833AF583E0F5F088
:1000C600A3E0225009E92582F886F008E622BBFE65
:1000D6000AE92582F8E2F5F008E222E5832AF583AB
:0800E600E993F5F0A3E9932270
:1000EE00BB010DC58229C582C5833AC5830200A016
:1000FE005011C58229F808E5F026F618F5F0E582CC
:10010E0036F622BBFE11C58229F808E225F0F5F07D
:10011E00F218E23582F222F8E58229F582E5832A89
:0D012E00F58374019325F0F5F0E493382279
:10013B00BB010A89828A83F0E5F0A3F0225006F70F
:0F014B0009A7F01922BBFE06F3E5F009F319220C
:10015A00F8BB0111E58229F582E5833AF583E8F0D7
:10016A00E5F0A3F0225009E92582C8F608A6F02294
:0D017A00BBFE09E92582C8F2E5F008F2227B
:0D018700EF2BFFEE3AFEED39FDEC38FC22C7
:10019400E88FF0A4CC8BF0A42CFCE98EF0A42CFC0A
:1001A4008AF0EDA42CFCEA8EF0A4CDA8F08BF0A488
:1001B4002DCC3825F0FDE98FF0A42CCD35F0FCEBE7
:1001C4008EF0A4FEA9F0EB8FF0A4CFC5F02ECD39AC
:0F01D400FEE43CFCEAA42DCE35F0FDE43CFC2219
:1001E30075F008758200EF2FFFEE33FECD33CDCCD3
:1001F30033CCC58233C5829BED9AEC99E582984056
:100203000CF582EE9BFEED9AFDEC99FC0FD5F0D632
:10021300E4CEFBE4CDFAE4CCF9A88222B800C1B95C
:100223000059BA002DEC8BF084CFCECDFCE5F0CB9A
:10023300F97818EF2FFFEE33FEED33FDEC33FCEBD3
:1002430033FB10D703994004EB99FB0FD8E5E4F98E
:10025300FA227818EF2FFFEE33FEED33FDEC33FC7B
:10026300C933C910D7059BE99A4007EC9BFCE99A6F
:10027300F90FD8E0E4C9FAE4CCFB2275F010EF2FB4
:10028300FFEE33FEED33FDCC33CCC833C810D707B4
:100293009BEC9AE899400AED9BFDEC9AFCE899F8EF
:0E02A3000FD5F0DAE4CDFBE4CCFAE4C8F92282
:1002B100EB9FF5F0EA9E42F0E99D42F0EC6480C8C4
:0602C10064809845F02264
:0C02C700E0FCA3E0FDA3E0FEA3E0FF22AA
:0C02D300ECF0A3EDF0A3EEF0A3EFF0229E
:1002DF00A8828583F0D083D0821202F61202F61222
:1002EF0002F61202F6E473E493A3C583C5F0C58347
:1002FF00C8C582C8F0A3C583C5F0C583C8C582C869
:01030F0022CB
:0C031000A42582F582E5F03583F58322F8
:09031C00E0FBA3E0FAA3E0F922E2
:10032500F8E0FBA3A3E0F925F0F0E5821582700261
:070335001583E0FA38F02205
:10033C00F8E0FBA3A3E025F0F9F0E582158270024A
:07034C001583E038FAF022EE
:09035300EBF0A3EAF0A3E9F022AB
:10035C00BB010789828A8302031C5005E9F8020459
:10036C00B2BBFE05E9F80204C489828A830204D672
:10037C00BB011A89828A83D0F0D0E0F8D0E0F9D0A2
:10038C00E0FAD0E0FBE8C0E0C0F00203535016E9FD
:10039C00F8D083D082D0E0F9D0E0FAD0E0FBC08274
:1003AC00C0830204BBBBFE16E9F8D083D082D0E038
:0F03BC00F9D0E0FAD0E0FBC082C0830204CD226A
:1003CB00BB010DE58229F582E5833AF58302031C17
:1003DB005007E92582F80204B2BBFE07E92582F833
:1003EB000204C4E58229F582E5833AF5830204D63B
:1003FB00BB0120E58229F582E5833AF583D0F0D065
:10040B00E0F8D0E0F9D0E0FAD0E0FBE8C0E0C0F0D3
:10041B000203535018E92582F8D083D082D0E0F93B
:10042B00D0E0FAD0E0FBC082C0830204BBBBFE1855
:10043B00E92582F8D083D082D0E0F9D0E0FAD0E081
:09044B00FBC082C0830204CD2233
:10045400E5092582F582E5083583F583B508048529
:1004640082092210AF06858209F50822858209F5E2
:0404740008D2AF22D9
:0D047800E5092582F582E5083583F583222C
:10048500EC8EF0A4CCC5F0CCCDF8EFA4CEC5F02D04
:10049500FDE43CFCE8A42EC8C5F03DFDE43CFCEFC2
:0D04A500A4FFE5F028FEE43DFDE43CFC2250
:0904B200E6FB08E6FA08E6F9226F
:0904BB00EBF608EAF608E9F62266
:0904C400E2FB08E2FA08E2F92269
:0904CD00EBF208EAF208E9F22260
:0C04D600E493FB740193FA740293F92282
:00000001FF
