:101914004832000102040810204080610030C400F5
:1019240000010002000100030001000200010004A4
:101934000001000200010003000100020001000593
:101944000001000200010003000100020001000484
:101954000001000200010003000100020001000672
:101964000001000200010003000100020001000464
:101974000001000200010003000100020001000553
:101984000001000200010003000100020001000444
:101994000001000200010003000100020001000731
:1019A4000001000200010003000100020001000424
:1019B4000001000200010003000100020001000513
:1019C4000001000200010003000100020001000404
:1019D40000010002000100030001000200010006F2
:1019E40000010002000100030001000200010004E4
:1019F40000010002000100030001000200010005D3
:101A040000010002000100030001000200010004C3
:0F1A1400000100020001000300010002000100B8
:1010000075F003A424CCF582E43431F5831208D6BC
:10101000850D83850E8212090D850D83850E822232
:10102000F07B0190FFFD120A3412090D7B007A005B
:10103000790090FFFD120A3402090D900003120A94
:10104000580208D61208D69000161205B7FEEF4EC9
:10105000903000F09000141205B7244FF582E4346C
:1010600032F58322900003120A58E075F003A4249D
:10107000CCF582E43431F5832212059EFF9030C115
:101080000208D6900011E41205F67B007A00790080
:1010900022903000E024C4F582E43430F583E0226D
:1010A0001208D69031C512090D9031DC12087590E6
:1010B00031DCEF2401FFE43EFEE43DFDE43CFC02B4
:1010C000088DA3E475F0011208DF12059EFF900061
:1010D00004020A5890FFFF120A34EFF090FFFD025D
:1010E0000A3412090D9031F81208D6E94A4B22F061
:1010F000900003020A581208D6E92403F9E43AFAE8
:101100002290FFFE020A341208D69000060205B7AC
:10111000F090FFFF020A341205B72400F582E43490
:1011200032F583E0221208D69000150205B7E4F5E7
:07113000F090000F0206E43D
:10113700FEEF33333354F8FFEE2FFF90324AF0902F
:10114700320822E92411F9E43AFA02059EFE9000DA
:1011570006020A58903000E0FF9000161205B7F417
:10116700FEEF5E903000F0229031F81208D6120997
:10117700169031F802090D90000474FFF5F002068D
:10118700789000070205B7900007020A58900011EF
:101197000205B7120A58E0FCA3E022FD120A58EC38
:1011A700F0A3EDF0221208D6900004020640E47581
:1011B700F00102062AE0FEA3E0D39400EE94002299
:1011C7009031C512090D9030C102090D9031FB0213
:1011D70008751208D690000622E47B64FAF9F80233
:1011E700071EE475F0011208DFEF0205E49000081E
:1011F700120A58E0221208D6E92407F9E43AFA223B
:101207009031C4E0FF903047E04F22900005020A7A
:10121700589000141205B7FF7E0022E92FF9EE3A25
:10122700FA22E0FEA3E0FFC3221208D690000322B1
:0D1237001208D690000F2290FFFC020A342E
:101A3D0012103290FFF8120A3490000812103E1264
:101A4D0011881210951210CDEFF01210CEE0FF128A
:101A5D00111A121154EEF01210F9EF7C0029F9EC65
:101A6D003AFA12059EFE121095FD1210F0ED1210AD
:101A7D00EFE0FD12111AFC121212ECF0EF333333BA
:101A8D0054F82DFF12118EEFF0121212E0FCF45EDD
:101A9D001205E4701590000812103EE9240712118A
:101AAD004D121154E0F45E1205E412118EE0121085
:101ABD00001208D612112E12108AC003C002C001E6
:101ACD001210191208D69000091209B590000B12C8
:101ADD00103EC003C002C0011210191208D69000AA
:101AED000C1209B51210191208D612114AFE9000E7
:101AFD000E120A58E0F45E1205E41210191208D6FF
:101B0D001211947017903000E0121154E04E903085
:101B1D0000F01210CEE012105AE04CF090000F02BF
:021B2D000A3478
:10248D001210DC1210161208D6C003C002C00112C1
:10249D00107D9000091209B512107D121054C083E1
:1024AD00C082E012107C121128F4FEEF5ED082D0B3
:1024BD0083F0700312115B12107D12121812101995
:1024CD001210F6121222C003C002C00112107912AE
:1024DD0011284FD001D002D0031205E412101912A9
:1024ED0011FCC003C002C001121079900016120534
:1024FD00B74FD001D002D0031205E4900003020AB9
:01250D003499
:1027660012103212107D1212181210191210F612CF
:102776001222C003C002C001121079121128F45FA0
:10278600D001D002D0031205E470201210191211E4
:10279600FCC003C002C0011210799000161205B7E2
:1027A600F45FD001D002D0031205E412107D12109E
:1027B60083C003C002C00112107D9000091209B542
:0627C600900003020A343A
:102B2600121032121111121019A31208D6900007B2
:102B3600E41205F6121019E4F0121019E0FFC3941E
:102B4600015015A31210F67E00121222E41205E4BB
:0E2B5600121019E004F080E1900004020A342D
:1013D2001211019031C812089900000000E4903106
:1013E200C4F0903047F09031FFF0903006F0903129
:1013F200FB120899000000009031DC1208990000ED
:101402000000E4903000F0121019F0A3F01210194D
:10141200E0FEA3E0C39401EE94005012121019A34F
:10142200E012105AE4F01210191211B680DFE490A3
:101432003208F090324AF0FBFAF91211C7903048A4
:10144200121016E4F0A3F01210191212299405EEEC
:101452009400501E12108A9031CC75F003EF1208DE
:10146200CAEE75F003A42583F5831210161211B586
:1014720080D5121019E4F0A3F01210191212299457
:1014820004EE940050327C007D1712061874622F0D
:10149200F974303EFA7B01121019E0FEA3E090309D
:1014A2004E75F0171208CAEE75F017A42583F5835E
:1014B2001210161211B580C112108A9030AA1209A8
:1014C2000D0B7A30794B9030BE121016E4F0A3F077
:1014D2001210191212299402EE94005026EF78038A
:1014E200C333CE33CED8F9FF24E8F974313EFA7B08
:0614F2000174E02FF582F9
:1014F80074313EF5831210161211B580CD12108A80
:101508009031F012090D0B7A3179E012117812112D
:101518001174047A3279481210207BFF7A2C79638F
:10152800121B2F12111174037A3079461210207B86
:0E153800FF7A1F7908121B2F900002020A345E
:102CEB00A2AFC2AFC0D09031C4E004F0D0D092AF4D
:012CFB0022B6
:102B6400A2AFC2AFC0D0903047E0FF9031C4E014B0
:102B7400FEF0EF4E70221210919031DBF0E0FF1264
:102B8400105A121094121137E06F600C90324A12EE
:0D2B9400106A1210A0121CE9D0D092AF22DE
:102BDD00121111A2AFC2AFC0D01212077022121083
:102BED0091121019F0E0FF12105A121094121137B1
:102BFD00E06F600C90324A12106A1210A0121C1A6B
:0A2C0D00D0D092AF900001020A340B
:102CA900903006E0B40110A2AFC2AFC0D090304757
:082CB900E004F0D0D092AF223C
:1027CC00903006E064017027A2AFC2AFC0D0903049
:1027DC0047E0D394004014E014F01212077007D0B5
:1027EC00D092AF022BDDD0D092AF22D0D092AF22BC
:102AE600121101903006E07031121091121019F097
:102AF600E0FF12105A121094121019A3F0EF33339C
:102B06003354F8FF121019A3E02F121142F01210DD
:102B16006B1208D61211C71228BE900002020A34A0
:102BA1007E007F0212296FA2AFC2AFC0D09031FB6D
:102BB10012089900000000D0D092AF7E007F64120D
:102BC100296FA2AFC2AFC0D01211D390324B1208FD
:0C2BD1008D9032497401F0D0D092AF22F8
:102C63001210DC1210161208D612101912090DA236
:102C7300AFC2AFC0D01211D39031FB1210B2D0D07B
:042C830092AF80EBA1
:101F080012103290FFFB120A3490000512103E1294
:101F1800121212090D903249E07008FE7FC812298A
:101F28006F80F2A2AFC2AFC0D01211D390300212AC
:101F3800088D1211D312101912088D9031FB120856
:101F48009900000000D0D092AFE4FFFEFDFC903273
:101F58004B120881D31208514046E47F64FEFDFC11
:101F680012101912088112071E90324B12088112A2
:101F780007A9C374649F1210CDEFF01210CEE0FFD2
:101F8800D3648094E440089030017464F08016C3F0
:101F9800EF6480948050028007903001EFF0800554
:101FA800E4903001F0120FFE7E007F6412296FE189
:011FB8002BFD
:101244001210321210D4A2AFC2AFC0D09030BE126E
:10125400100D1210E8700261C61210191212301229
:1012640009859030BE12090DD0D092AF90000412BF
:10127400103EC003C002C0011210191208D6120990
:10128400361210F0E0FF1210191208D6900012EF77
:101294001205F6900011E41205F612112E90000EBC
:1012A40012103E90000E120A5812090D90000C12F2
:1012B400119A90000C1211A290000712103E121104
:1012C4008E12090D90001112119A9000111211A2A0
:1012D40090000A12119AFD90000A1211A3EF131341
:1012E40013541FFE1210191208D6900014EE1205A2
:1012F400F69000141211179000161205F6EF540719
:101304009000131205F69000131211179000151295
:101314001087C003C002C0011210191208D6900031
:10132400091209B512108AC003C002C001121019B3
:101334001208D690000C1209B5A2AFC2AFC0D012E9
:1013440010191208D612106412090D9030481208B0
:10135400D6C003C002C0011210191212301209B50E
:1013640012108AC003C002C0011210191211D9123E
:1013740009B59030481210E860151210191208D6F9
:10138400C003C002C0019030481211D91209B5122D
:1013940010191208D690304812090D903000E0FF61
:1013A400121019121044C083C082E0FF12101912E7
:1013B4001125FEEF4ED082D083F0D0D092AF7F00C3
:0E13C4008006D0D092AF7F46900013020A340C
:102000001210DC120FFF9030481208D6121019126D
:10201000090D1210191208D69000121205B76404A7
:102020006063A2AFC2AFC0D090000F12064045F06F
:10203000603E12101912123712118145F0703112E0
:10204000119420E31E903000E0FF121047C083C0BF
:1020500082E0FF121019121125FEEF4ED082D083BC
:10206000F0800D121019121237E475F0011206E417
:1020700012101912123012098512101912090DD0FE
:10208000D092AF0112A2AFC2AFC0D09031C8120837
:1020900075EF2401FFE43EFEE43DFDE43CFC90319D
:0E20A000C812088DD0D092AF900003020A340F
:050FF9007E007FC8220C
:1029C5001210321210DCA2AFC2AFC0D012103B12EF
:1029D500110A64016009D0D092AF12108A802712C3
:1029E500103B1209161210101210E8600F12108A0F
:1029F500C003C002C00112103B120936D0D092AFFD
:0C2A05001210191208D6900006020A34C4
:102863001210321210DCA2AFC2AFC0D09031F812F6
:1028730008D61210191210E2600312116FD0D09211
:10288300AF1210191210E860261210191211D97420
:10289300011205F612103BC003C002C00112101949
:1028A3001208D61209361210191208D6122B261244
:0B28B30010191208D6900006020A342B
:10169600121101ECF0A3EDF01210321210DCA2AF21
:1016A600C2AFC0D012103B12110A64016014D0D030
:1016B60092AF90000812103E74011205E412108ACF
:1016C600E1DF12103B1209161210101210E8601515
:1016D60012108AC003C002C00112103B120936D094
:1016E600D092AFE16F9031C4E0D39400400ED0D0D9
:1016F60092AF90000812103E7402E1D612107D12CD
:10170600114A44021205E4121155E0FEA3E012103C
:101716007CEE8FF012113112103B12248DD0D09234
:10172600AF122BDDA2AFC2AFC0D012107D90000C5D
:1017360012098512101912090DE94A4B603412106C
:101746008AC003C002C00112107D90000C1209B5B8
:1017560012107D121083C003C002C00112107D90CA
:1017660000091209B5D0D092AF90000812103EE4DD
:10177600E1D612107D12119430E11D12103B122792
:1017860066D0D092AF12108A12101912090D90006D
:101796000812103E740A803812103B1209161210F5
:1017A6001912090D12108AC003C002C00112103BA3
:1017B60012093612108AC003C002C00112107D90B1
:1017C60000091209B5D0D092AF90000812103EE47D
:0F17D6001205E41210191208D690000B020A3403
:10267C00121032A2AFC2AFC0D012101912110764DF
:10268C00016008D0D092AF7F018056121188602370
:10269C001211117402F090000412103E12103290BC
:1026AC00000412103E121A3DD0D092AF122BDD7FD7
:1026BC0000802E1210191208D6120916E94A4B6026
:1026CC0008D0D092AF7F14801812103BC003C00208
:1026DC00C0011210191208D6120936D0D092AF7F51
:0726EC0000900006020A3411
:1021DD0012103290FFF9120A34A2AFC2AFC0D090E4
:1021ED00000712103E12110A64016008D0D092AFA0
:1021FD007F014168121188FF90000A12103E900075
:10220D0004EF1205F690000712103E1210F912108D
:10221D0019A312090D90000A12103E1210F9121096
:10222D00CE121016E4F0121019E0C39401500E12E4
:10223D0010C21211E9121019E004F080E9900007A4
:10224D0012103E120916C003C002C00190000A12FE
:10225D00103E120936D0D092AF7F0090000D020AC9
:01226D00343C
:102A1100121032121101A2AFC2AFC0D0121019A30D
:102A2100A31211076403600AD0D092AF7E007F0029
:102A310080211211AFFF121019E5F0F0A3EFF0128F
:102A41001019E0FEA3E0FF1211C0400312117ED065
:092A5100D092AF900005020A3496
:10291900121101EEF0A31210DAA2AFC2AFC0D0902B
:1029290031F81208D61210191210E2600312116F51
:10293900D0D092AF1210191210E8601E121019129D
:1029490011D974031205F61210F0E0FFA3E090000C
:1029590004CF8FF01206E4122B261210191208D692
:06296900900005020A3493
:100F2600121101ECF0A3EDF0121032A2AFC2AFC065
:100F3600D01210191211076403600FD0D092AF902F
:100F4600000512103E74011205E41210191211ACBC
:100F5600D39400E5F09400400912117ED0D092AFF0
:100F6600E1E99031C4E0D39400400ED0D092AF9026
:100F7600000512103E7402E1F012107D12114A446F
:100F8600011205E41210F0E0FEA3E012107C9000BE
:100F96000FEE8FF01206E41210191208D612248DE5
:100FA600D0D092AF122BDDA2AFC2AFC0D012107D4F
:100FB60012119430E0171210191208D6122766D0B3
:100FC600D092AF90000512103E740A801D12108A4E
:100FD600C003C002C00112107D9000091209B5D0ED
:100FE600D092AF90000512103EE41205E49000087E
:030FF600020A34B8
:10260300121032A2AFC2AFC0D01210191211076458
:10261300036008D0D092AF7F018058121188601DEB
:102623001211117401F012102C90000412103E12BA
:102633001A3DD0D092AF122BDD7F008036121019D5
:102643001211ACFFAEF0E4FCFD7BFF7AFFF9F8D387
:1026530012083B40181210191208D6900004E475B2
:10266300F001120678D0D092AF7F008006D0D092CE
:09267300AF7F32900003020A342B
:1021480012103290FFF9120A34A2AFC2AFC0D09079
:10215800000712103E12110A64036008D0D092AF33
:102168007F0121D7121188FF90000A12103E9000BB
:1021780003EF1205F690000712103E1210F9121024
:1021880019A312090D90000A12103EE92402F9E47D
:102198003AFA1210CE121016E4F0121019E0C39495
:1021A80001500E1210C21211E9121019E004F08049
:1021B800E990000712103E1211AFFFAEF090000A2E
:1021C80012103EEE8FF01206C5D0D092AF7F00906D
:0521D800000D020A34B5
:0100090022D4
:101B2F0012103212123E90000D120A58E0FED3949A
:101B3F000440047F2A8114A2AFC2AFC0D0EE1210AE
:101B4F006B1210E86002810EFBFA7901EE12106B36
:101B5F0012090DD0D092AF121101E4F0A3F0900052
:101B6F000C12103E12103290000C12103E12103256
:101B7F0090000C12103E121E5612101912090D125F
:101B8F001101E4F0A3F0FBFAF9121032121101E483
:101B9F00F0A3F0121101E4F0A3F0FBFAF9121032E6
:101BAF0090000C12103E900019120A58E0FF12120A
:101BBF00441210F0EF1210EFE07027A2AFC2AFC0C7
:101BCF00D09031FFE004F090000D1210671208D68C
:101BDF00122CC1D0D092AF903006E0601B122BDDDB
:101BEF008016A2AFC2AFC0D012108A90000D121093
:101BFF006712090DD0D092AF1210F0E0FF8006D01F
:0B1C0F00D092AF7F2890000E020A3434
:10250E001210321210D41210F0E0FED394044008D0
:10251E00EEF460047F2A805DA2AFC2AFC0D0EEB4ED
:10252E00FF0F12107D9000121205B7FF1210F0EF80
:10253E00F01210641208D612101912090DE94A4B46
:10254E007008D0D092AF7F29802B1210191208D6A6
:10255E00C003C002C00190000412103EA801AC02DC
:10256E00AD03D001D002D0037E007F17120578D0C4
:0B257E00D092AF7F00900007020A34EB
:10296F00121101EEF0A3EFF0121019E0FCA3E0FD3D
:10297F00D39400EC94004038A2AFC2AFC0D0121075
:10298F007D121054C083C082E012107C121128F403
:10299F00FEEF5ED082D083F0700312115B12107DB8
:1029AF0090000FEC8DF01206E4D0D092AF122BDD19
:0629BF00900002020A3440
:10154600121111EB121110ED121110EFF090FFFABB
:10155600120A34121155E0D39400501E12118EE077
:10156600D3940050151211F4D39400500D90000935
:10157600120A581211BC5002C18E12118EE0FED30F
:10158600943B40047F51C1901211F4D3943B400424
:101596007F52C19090000912119AD394E7EC9403FC
:1015A60040047F53C190AF06E4FCFDFE7B3C121164
:1015B600E3C004C005C006C007121155E0FFE4FCF5
:1015C600FDFE7B107A0EF9F812071ED003D002D06A
:1015D60001D000120711A804A905AA06AB0712112B
:1015E600F4FFE4FCFDFE1207111211E0C004C00571
:1015F600C006C007900009120A58E0FEA3E0FFEFFC
:101606002405FFE43EFEE433FDE433FC1211E0E47E
:101616007BE87A03F9F81207A9D003D002D001D0EB
:101626000012071112101912088DE4FBFA7901F85D
:101636001210191208751207A91210CEEEF0A3EFB8
:0E164600F0121019C083C082120875E4FDFC7A
:10165400D082D08312088D121019A3A3E0FEA3E058
:10166400FF12296F1210CE1211BC401A7E807F0027
:1016740012296F7E807F0012296F1210CE74FFF53D
:10168400F012062A80DE7F0080027F5490000B0255
:021694000A3416
:102589001210D41210F0E0FEC3940440047F2AA173
:10259900FDA2AFC2AFC0D0EE1210001210E8604E1B
:1025A90012101912123712064045F0603912112E15
:1025B90012119420E328903000E0FF121019121034
:1025C90044C083C082E0FF121019121125FEEF4E9C
:1025D900D082D083F0D0D092AF122BDD8004D0D03E
:1025E90092AF7F00800ED0D092AF7F508006D0D0BE
:0A25F90092AF7F0B900004020A3439
:102C3E0012123EA2AFC2AFC0D09031C812087512A8
:102C4E00101912088DD0D092AF121019120875906B
:052C5E000004020A342D
:102C870012123E12088DA2AFC2AFC0D01210191295
:102C970008759031C812088DD0D092AF9000040209
:022CA7000A34ED
:101FB9001205E4850D83850E8274FFF5F00208F69B
:101FC900850D83850E82A374FF75F0FE12062A9093
:101FD9000003120A581208D6AE02AF01850D838597
:101FE9000E822290FFFD120A3402090D1208D6EE64
:051FF9008FF00206C597
:101E5600121FEC90FFFD120A3490000C120A58E093
:101E6600FEA3E0FF90000C120A58EEF0A3EFF090EC
:101E76000009120A581208D6121FE512090D121F80
:101E8600C9121FF5121FC9121FF5121FBC74411289
:101E96001FB97442121FB9744C121FB97448121F2D
:101EA600B9E5D0121FB9E41205E4121FE5A374FFC9
:101EB60075F0FD12062A900006120A581208D6C0BE
:101EC60003C002C001121FE51208D6120936121FFE
:101ED600BC7404121FB97405121FB97406121FB917
:101EE6007407121FB974801205E474222411FF12BC
:101EF6001FBCEF1205E4121FE51208D690000E0271
:021F06000A349B
:03000B00022A5A6C
:102A5A00C0E0C0F0C083C082C0D075D000C000C042
:102A6A0001C002C003C004C005C006C007C0A81246
:102A7A002CEB122CFC122000122B64D0A8D007D009
:102A8A0006D005D004D003D002D001D000D0D0D0D7
:082A9A0082D083D0F0D0E032BD
:102CC100121FEC121FE51208D6121FE512090D9012
:052CD1000003020A34BB
:102CD600121FEC121FE51208D6121FE512090D90FD
:052CE6000003020A34A6
:01000A0022D3
:010FFE0022D0
:010FFF0022CF
:101C1A00C0E0C0F0C083C082C0D0C000C001C00212
:101C2A00C003C004C005C006C007C0A8850D8385CF
:101C3A000E82E581C39421F804C3C58295825002BD
:101C4A001583F58285830D85820EE581F0A3D0E0A8
:101C5A00F0D8FA9030C1A3E0F50FA3E0F510850F94
:101C6A0083851082A3E50DF0A3E50EF012000A9019
:101C7A0031C5A3E0F50FA3E0F5109030C1A3E50F3D
:101C8A00F0A3E510F090324AE0903208F09031C5A6
:101C9A00A3E0F50FA3E0F510850F83851082A3E07A
:101CAA00F50DA3E0F50E850D83850E82E0F581A37F
:101CBA00A881E0F6A318B821F985830D85820ED094
:101CCA00E03392AFD007D006D005D004D003D002BB
:0F1CDA00D001D000D0D0D082D083D0F0D0E02283
:101CE900E5819405F581850D83850E82E581C3948F
:101CF90021F804C3C582958250021583F582858334
:101D09000D85820EE581F0A3D0E0F0D8FA9030C1BC
:101D1900A3E0F50FA3E0F510850F83851082A3E5F5
:101D29000DF0A3E50EF012000A9031C5A3E0F50FFE
:101D3900A3E0F5109030C1A3E50FF0A3E510F090F2
:101D4900324AE0903208F09031C5A3E0F50FA3E0E4
:101D5900F510850F83851082A3E0F50DA3E0F50E3C
:101D6900850D83850E82E0F581A3A881E0F6A3188D
:101D7900B821F985830D85820ED0E03392AFD00763
:101D8900D006D005D004D003D002D001D000D0D0E5
:091D9900D082D083D0F0D0E032FA
:1028BE0012000A9030067401F09031C5A3E0F50FB6
:1028CE00A3E0F510850F83851082A3E0F50DA3E03C
:1028DE00F50E850D83850E82E0F581A3A881E0F6C5
:1028EE00A318B821F985830D85820ED0E03392AFFF
:1028FE00D007D006D005D004D003D002D001D0002E
:0B290E00D0D0D082D083D0F0D0E022E7
:1017E500546869732069732074686520746573741F
:1017F5002070726F6772616D6D650A0054686520AF
:10180500706F727420746F2038303531206D6164CB
:1018150065206279204A756E6D696E205A68656E1D
:1018250067200A000A007468697320697320746868
:1018350065206669727374207461736B2066756EBA
:101845006374696F6E0A00663D2564202000613D62
:1018550025660A00746869732069732074686520B9
:101865007365636F6E64207461736B2066756E6358
:1018750074696F6E0A00746865207365636F6E64C2
:10188500207461736B2073656E64206D657373617D
:10189500676520256320746F207468652074686906
:1018A5007264207461736B0A0074686973206973CC
:1018B50020746865207468697264207461736B2094
:1018C50066756E6374696F6E0A00613D256620203A
:1018D50000623D25640A0074686520746869726455
:1018E500207461736B2072656365697665206D652B
:1018F50073736167652025632066726F6D20746858
:0F19050065207365636F6E64207461736B0A00F5
:101A230044335F4480000043325B00000A4332507A
:091A330000001443325500001EAE
:102800007A3279DE7B0190FFFD120A3402090D90C5
:10281000FFFB120A347B007A007900850D83850E58
:1028200082229033667C007D000208D612090D904A
:102830000003020A587BFF90335F12087590336CD7
:1028400002088D7BFF7A18792922E0FFA3E09033FC
:102850006CCFF0A3EFF022900005020A5890336687
:032860000208D695
:101DA200E4F5A81213D27DB07C047F0C1224087BC8
:101DB200FF7A1779E5120B007BFF7A187901120B73
:101DC20000122843120B007E007F01122919903362
:101DD20066121E49903258121E4990336312090D41
:101DE20090FFFF120A34E4F07A33795F12280490EC
:101DF200325B1208D61228067A2279FA121E3D7434
:101E020001F0FB7A32799E1228069032501208D6DF
:101E12001228067A237981121E3D7402F07B017A20
:101E22003279DE1228069032551208D61228067B25
:101E3200FF7A2079AE121B2F022AE67BFF121B2F9C
:101E420090FFFF120A342212090D7B007A007900FA
:041E520012286322CD
:0322FA00122806A1
:1022FD0012280F12282CE4F0A3F07D647F0C122617
:10230D00F31228571208D612281B12090D12281B7A
:10231D001208D6AE02AF0112282FEEF0A3EFF09007
:10232D00335F120875E4FBFAF9784012001190330F
:10233D005F12088D122800122822120F267BFF7AB9
:10234D0018792B120B007BFF7A18794C12282F125B
:10235D00284A120B007A187953122835120B0012E5
:10236D002843120B0012285D1226037E007F1E12D9
:04237D00296F612C37
:0923810012280690FFFF120A3435
:10238A0012281BE4F0A31208D612281BA312090D67
:10239A0012281B7441F012281BE0D3648094DA508F
:1023AA00557B01A982AA831228069033631208D6A4
:1023BA0012267C122800122822120F267BFF7A1876
:1023CA007959120B007BFF7A18797B12281BE0904F
:1023DA00336CF0120B00122843120B0012285D1204
:1023EA00260312280090325812282512169612280F
:0E23FA001BE004F061A012281B7441F061A0EA
:0320AE00122806EF
:1020B10012280F12282CE4F0A3F01228571208D688
:1020C10012285712090D12282FE475F00112062A61
:1020D1001228007C007D009033631208D6121696F8
:1020E10012281B12090D122800122822120F267B1A
:1020F100FF7A1879AE120B007A1879CF12283512AF
:102101000B007BFF7A1879D612282F12284A120B5E
:102111000012281B1208D612059E90336CF07BFF2B
:102121007A1879DC120B00122843120B0012285D79
:102131001226037B007A0079011228069032581288
:0721410008D612267C01C73D
:0600030090336B02088D32
:092CFC000512E512700205112217
:0A240800903369ECF0A3EDF0AB0790
:10241200A312089900000000AF03E4FCFDFE7B401C
:102422007A42790FF812071EC004C005C006C00721
:10243200903369E0FEA3E0FFE4F8F9AA06AB07D007
:1024420007D006D005D004122AA212000390336BE3
:10245200120875E47B807A01F9F81207A9120003C9
:1024620090336B120881C3E49BFF74019AFEE499D6
:10247200FDE498FC12000375985043892090336E56
:0A248200E0F58DD28ED2996390012F
:01248C00222D
:0726F300903369EFF0AB0525
:1026FA00A312089900000000EB75F00CA4FFAEF0DD
:10270A00E4FCF8F9AA06AB077F407E427D0F122A45
:10271A00A290336A12088D903369E0FFE4FCFDFE53
:10272A00A312088112071EC374FF9FFF74FF9EFE47
:10273A00E49DFDE49CFC90336A12088DE58954F00F
:10274A004401F58990336DE0F58A90336A12087571
:0B275A0078081208628F8CD28CD2A984
:012765002251
:10000E000200EDEC5D046005E8590470030200E3A4
:10001E001200AE580460F6EC4860F2EC7004FDFE7F
:10002E00FF22C860DB2481C85009C39860025006C5
:10003E000200EA9850CAF582E9294B4A7005AB8254
:10004E000200D975F0007C1A7880C3EF9BEE9AED12
:10005E0099400DC3EF9BFFEE9AFEED99FDE842F03D
:10006E00DC23ACF0D0E0FFD0E0FED0E0FDAB822090
:10007E00E7101BEB60BAEC2CFCEF33FFEE33FEED1A
:10008E0033FD0200C5E803F830E705C0F075F00057
:10009E00EF2FFFEE33FEED33FD40B830E7C280AAFE
:100A9500E508246CF582E43433F583E005082290FB
:100AA500336930070390336CE475F0011208DF02F7
:100AB500059E2000E97F2ED2008018EF540F249068
:100AC500D43440D4FF30040BEF24BFB41A005003D4
:100AD5002461FFE50960021509050CE50C700205A6
:100AE5000B30070E903369E475F0011208DFEF0251
:100AF50005E4022C177403D2078003E4C207F50846
:100B050090336912090DE4F509F50BF50CE509605B
:100B1500077F20120AD880F5750AFFC201C200C2FC
:100B250002C203C205C206C208120AA4FF700D3034
:100B350007057F00120AE9AF0CAE0B22B4255FC290
:100B4500D5C204120AA4FF24D0B40A00501A75F0C5
:100B55000A780930D50508B6FF0106C6A426F62091
:100B6500D5047002D20380D924CFB41A00EF500403
:100B7500C2E5D204020DE9D20180C6D20080C0D2FE
:100B85000280BCD2D580BAD20580B47F20120AD8A3
:100B95002002077401B5090040F1120A95FF120AF7
:100BA500D8020B12D208D2068095120A95FB120ABA
:100BB50095FA120A95F94A4B700679E77A0E7BFF8A
:100BC50020023BE50960377E00E9C0E02EF9EAC066
:100BD500E03400FA12059EF9D0E0FAD0E0C96006CB
:100BE5000EEE650A70E3C2D5EBC0E0EAC0E0E9C0ED
:100BF500E0EE120E4AD0E0F9D0E0FAD0E0FB1205A3
:100C05009EFF609DEBC0E0EAC0E0E9C0E0120AD8B3
:100C1500D0E02401F9D0E03400FAD0E0FBE50A0485
:100C250060DCD50AD9020BA6D2028094120E2C6084
:100C3500F7E50A7001041200F8A90A600DE50A60DB
:100C45000914F50A120ED4EF60F3EA30E702F40452
:100C5500C3995079EAF4250A0430E701E404F50A5A
:100C6500800D120E2C60C1EA050A250A1200F8EA69
:100C7500903398F030E701E4250A04D50A042005ED
:100C85000114120E4AE4C0E0120ED4903398E060CD
:100C95001320E70714F0120AC0802204F0D0E014F4
:100CA500C0E07F00120AC0E50A6007120AB7150AFC
:100CB500800B300503120AB7D0E0020B12D0E00416
:100CC50080C4120E2C609EE50A041200F890339839
:060CD500EAF0E50A20052B
:100CDB00026001042404120E4A74FF04C0E0120ED9
:100CEB00D4120AC0E50A2005026003120AB7D0E04D
:100CFB00B50AE87F45120ACA903398E07F2B30E79C
:100D0B00047F2DF404C0E0120AD8D0E075F00A84F9
:100D1B00C0F0120AC1D0E0120AC1020B1279108086
:100D2B00027908C206C2088008D2D5790A800479F4
:100D3B000AC2D5E50A047002F50AE4FAFDFEFF12B9
:100D4B000A95FC7B08200113120A95FD7B103000DD
:100D5B000A120A95FE120A95FF7B20EC3382D5927C
:100D6B00D55013C3E43000069FFFE49EFEE4200140
:100D7B00039DFDE49CFCE4CBF8C201EC700CCFCEE0
:100D8B00CDCCE824F8F870F38017C3EF33FFEE33C4
:100D9B00FEED33FDEC33FCEB33FB994002FB0FD83C
:100DAB00E9EB300105F8D0E0C448B201C0E00AEC31
:100DBB004D4E4F78207B0070C2EAB50A0040BCC094
:100DCB00E0120E4CD0F0D0E0200104C4C0E0C4B25D
:100DDB0001C0F0120AC1D0F0D5F0EB020B12120ACF
:100DEB000E0BAF530D28580B804C0B7C420D2C4F28
:100DFB000D34440D34490B95430D3A550C67460C95
:100E0B00C7450C31470F07500B842D0B882E0BABAE
:100E1B002B0B8C230BA9200EF52A0B444800000B3F
:100E2B00A3E50AB4FF03750A06120A95FC120A958C
:100E3B00FD120A95FE120A95FF9033910201357946
:100E4B000AA2D5200314300509B910020404B9080D
:100E5B000104A2D52006025001042002689202B5BB
:100E6B0009005034C0E07F203003197F30A202729A
:100E7B00067205500F120EA3C202C206C205C208AB
:100E8B007F30800F300503E9C0E0120AD83005032C
:100E9B00D0E0F9D0E0B509CC3005177F30B9100C94
:100EAB00120AD87F583004077F788003B9080312E1
:100EBB000AD83002057F2D020AD87F202008F87F40
:100ECB002B2006F322920280CF7F00B40700500B39
:100EDB002491F582E43433F583E0FF22286E756CA0
:100EEB006C29002D50434958D201120A953001F854
:100EFB00C201780930D50108F6020B44120A952479
:100F0B0003B405004001E4900EEE93120AC9743A43
:0B0F1B00120AC9D203750904020D2858
:1000AE00E9D2E7C933E833F892D5EDD2E7CD33EC98
:0700BE0033FC5002B2D52211
:1000C500EC30E7100FBF000C0EBE00080DBD00049C
:1000D5000BEB6014A2D5EB13FCED92E7FD2274FF48
:1000E500FCFDFEFF22E480F8A2D574FF13FC7D80A1
:0300F500E480EFB5
:1000F800F920E73624F950037907E4F42402FBE5F4
:1001080082158270021583DBF6E024FB501BE96040
:1001180014E4F0E582158270021583E004F0B40A55
:0D01280008E4F0D9EE7401F00A22C2D522DD
:10013500ED33EC3392D5FA602AB4FF33EDC2E77B99
:10014500FF60067A01795AE4227A01796320D504A1
:100155007A01795E224E614E002B494E46002D49AB
:100165004E4600E47A08F0A3DAFC7B00740722C04F
:1001750083C082ECC0E0EDC0E0EEC0E0EFC0E0EA95
:1001850075F010A4CAABF075F04DA42BFBE435F067
:10019500FCEA2410FAEB34C5FBEC34D9FCEDC2E7DC
:1001A500FF75F056A4F42411C5F0F434C58FF0A4FE
:1001B5002AE5F03BE43CF020E714120468D0E0FFA8
:1001C500D0E0FED0E0FDD0E0FC1200118014F40474
:1001D500120468D0E0FFD0E0FED0E0FDD0E0FC12D4
:1001E5000332D082D083E0FAEDD2E7CD33EC33246D
:1001F50082FBE4C3CF33CFCE33CECD33CD33DBF368
:100205007B0775F00A846004F0A31B0AE5F0F0A3F0
:100215008FF0740AA4FFACF08EF0740AA42CFEAC27
:10022500F050010C8DF0740AA42CFDE435F0F0A318
:05023500DBDE7407226E
:10023A000200E3E86480F8E933E83360110460F00F
:10024A00ED33EC337009E8FCE9FDEAFEEBFF22042A
:10025A0060DED3EB9FEA9EE99DE8C2E78CF0C2F725
:10026A0095F0400CE8CCF8E9CDF9EACEFAEBCFFBF1
:10027A001200AE85D0F05804700320D5B3E804709C
:10028A00075002B2D50200ED92D5EC0460F7E4CC37
:10029A00C0E0C398F8603B94186008400DD0E0FBBA
:1002AA000200C5E4FBFAC9FC8028E830E406E4C988
:1002BA00FBE4CAFCE830E305E4C9CACBFCE854070E
:1002CA006010F8C3E913F9EA13FAEB13FBEC13FC19
:1002DA00D8F130F52FC3E49CFCEF9BFFEE9AFEEDBC
:1002EA0099FDD0E0FBEF4E4D4C701222DB03020069
:1002FA00EAEC2CFCEF33FFEE33FEED33FDED30E795
:10030A00EB0200C5EF2BFFEE3AFEED39FDD0E0FB24
:10031A0050130BBB00030200EDED13FDEE13FEEFCD
:08032A0013FFEC13FC0200C5F7
:10033200EC4D6011E8497017ED33EC3304600DE4C5
:10034200FCFFFEFD22E933E8330470F80200E312F9
:1003520000AE58046009E4CC2481500628500902FA
:1003620000ED2840030200EAC0E0EB4A7044B98085
:1003720006D0E0FB0200D9EF4E701CBD8008EBFFF7
:10038200EAFEE9FD80EBE98DF0A4FEE5F002041B34
:10039200E9CDF9EAFEEBFFEF89F0A4FCE5F0CE89A6
:1003A200F0A42EFFE435F0CD89F0A42DFEE435F063
:1003B2008067EF4E7005BD80D780C3EF8BF0A4AC91
:1003C200F0EE8BF0A42CFCE435F0F8EF8AF0A42CCC
:1003D200E5F038FCE433CB8DF0A42CFCE5F03BF8DF
:1003E200EE8AF0A42CFCE5F038F8E433CF89F0A4CF
:1003F2002CFCE5F038CF3400CE89F0A42FFFE5F0D5
:100402003EFEE433C98DF0A42EFEE5F039CD8AF02C
:10041200A42FFFE5F03EFEE43DFD33D0E0FB5007A4
:100422000BBB000F0200EDEC2CFCEF33FFEE33FEB2
:06043200ED33FD0200C5E0
:100438003F8000004120000042C80000447A0000CC
:10044800461C400047C35000497424004B1896804E
:100458004CBEBC205A0E1BCA6753C21C749DC5AE45
:10046800FB60065407601C2323120496EB54386083
:1004780009120482120491120332ECF8EDF9EEFA33
:10048800EFCB22EB12049180F1543803241C900422
:1004980038FE93FC0EEE93FD0EEE930ECE93FF22E4
:0300000002226E6B
:0C226E00787FE4F6D8FD7581210222B5CE
:1004A800E709F608DFFA8046E709F208DFFA803E36
:1004B80088828C83E709F0A3DFFA8032E309F60823
:1004C800DFFA8078E309F208DFFA807088828C838B
:1004D800E309F0A3DFFA806489828A83E0A3F6083F
:1004E800DFFA805889828A83E0A3F208DFFA804C19
:1004F80080D280FA80C680D4806980F280338010F0
:1005080080A680EA809A80A880DA80E280CA803358
:1005180089828A83ECFAE493A3C8C582C8CCC583D0
:10052800CCF0A3C8C582C8CCC583CCDFE9DEE780A0
:100538000D89828A83E493A3F608DFF9ECFAA9F01F
:10054800EDFB2289828A83ECFAE0A3C8C582C8CC75
:10055800C583CCF0A3C8C582C8CCC583CCDFEADE8E
:10056800E880DB89828A83E493A3F208DFF980CCF0
:1005780088F0EF60010E4E60C388F0ED2402B404E9
:100588000050B9F582EB2402B4040050AF23234590
:0605980082239004F873B9
:10059E00BB010689828A83E0225002E722BBFE025B
:0905AE00E32289828A83E493228E
:1005B700BB010CE58229F582E5833AF583E02250F9
:1005C70006E92582F8E622BBFE06E92582F8E22243
:0D05D700E58229F582E5833AF583E493225D
:1005E400BB010689828A83F0225002F722BBFE01F6
:0205F400F322F0
:1005F600F8BB010DE58229F582E5833AF583E8F03B
:10060600225006E92582C8F622BBFE05E92582C8E6
:02061600F222CE
:10061800EF8DF0A4A8F0CF8CF0A428CE8DF0A42EF6
:02062800FE22B0
:10062A00C5F0F8A3E028F0C5F0F8E582158270025B
:06063A001583E038F022F8
:10064000BB0110E58229F582E5833AF583E0F5F0F8
:10065000A3E0225009E92582F886F008E622BBFED5
:100660000AE92582F8E2F5F008E222E5832AF5831B
:08067000E993F5F0A3E99322E0
:10067800BB010DC58229C582C5833AC58302062AF6
:100688005011C58229F808E5F026F618F5F0E5823C
:1006980036F622BBFE11C58229F808E225F0F5F0EE
:1006A800F218E23582F222F8E58229F582E5832AFA
:0D06B800F58374019325F0F5F0E4933822EA
:1006C500BB010A89828A83F0E5F0A3F0225006F780
:0F06D50009A7F01922BBFE06F3E5F009F319227D
:1006E400F8BB0111E58229F582E5833AF583E8F048
:1006F400E5F0A3F0225009E92582C8F608A6F02205
:0D070400BBFE09E92582C8F2E5F008F222EB
:0D071100EF2BFFEE3AFEED39FDEC38FC2237
:10071E00E88FF0A4CC8BF0A42CFCE98EF0A42CFC7A
:10072E008AF0EDA42CFCEA8EF0A4CDA8F08BF0A4F8
:10073E002DCC3825F0FDE98FF0A42CCD35F0FCEB57
:10074E008EF0A4FEA9F0EB8FF0A4CFC5F02ECD391C
:0F075E00FEE43CFCEAA42DCE35F0FDE43CFC2289
:10076D0075F008758200EF2FFFEE33FECD33CDCC43
:10077D0033CCC58233C5829BED9AEC99E5829840C6
:10078D000CF582EE9BFEED9AFDEC99FC0FD5F0D6A3
:10079D00E4CEFBE4CDFAE4CCF9A88222B800C1B9CD
:1007AD000059BA002DEC8BF084CFCECDFCE5F0CB0B
:1007BD00F97818EF2FFFEE33FEED33FDEC33FCEB44
:1007CD0033FB10D703994004EB99FB0FD8E5E4F9FF
:1007DD00FA227818EF2FFFEE33FEED33FDEC33FCEC
:1007ED00C933C910D7059BE99A4007EC9BFCE99AE0
:1007FD00F90FD8E0E4C9FAE4CCFB2275F010EF2F25
:10080D00FFEE33FEED33FDCC33CCC833C810D70724
:10081D009BEC9AE899400AED9BFDEC9AFCE899F85F
:0E082D000FD5F0DAE4CDFBE4CCFAE4C8F922F2
:102AA200C2D5E830E70FB2D5E4C39BFBE49AFAE45F
:102AB20099F9E498F8EC30E717B2D5122AD8120740
:102AC200A9E4C39BFBE49AFAE499F9E498F8800339
:102AD2001207A930D50DE4C39FFFE49EFEE49DFDDD
:042AE200E49CFC2252
:10083B00EB9FF5F0EA9E42F0E99D42F0EC6480C834
:06084B0064809845F022D4
:10085100EB9FF5F0EA9E42F0E99D42F0E89C45F0FD
:010861002274
:10086200E8600FECC313FCED13FDEE13FEEF13FF74
:03087200D8F12298
:0C087500E0FCA3E0FDA3E0FEA3E0FF22F6
:0C088100E0F8A3E0F9A3E0FAA3E0FB22FA
:0C088D00ECF0A3EDF0A3EEF0A3EFF022DE
:10089900A8828583F0D083D0821208B01208B012E2
:1008A90008B01208B0E473E493A3C583C5F0C58307
:1008B900C8C582C8F0A3C583C5F0C583C8C582C8A9
:0108C900220C
:0C08CA00A42582F582E5F03583F5832239
:0908D600E0FBA3E0FAA3E0F92223
:1008DF00F8E0FBA3A3E0F925F0F0E58215827002A2
:0708EF001583E0FA38F02246
:1008F600F8E0FBA3A3E025F0F9F0E582158270028B
:070906001583E038FAF0222E
:09090D00EBF0A3EAF0A3E9F022EB
:10091600BB010789828A830208D65005E9F8020AD4
:1009260065BBFE05E9F8020A7789828A83020A898D
:10093600BB011A89828A83D0F0D0E0F8D0E0F9D0E2
:10094600E0FAD0E0FBE8C0E0C0F002090D5016E97D
:10095600F8D083D082D0E0F9D0E0FAD0E0FBC082B4
:10096600C083020A6EBBFE16E9F8D083D082D0E0BF
:0F097600F9D0E0FAD0E0FBC082C083020A8022F1
:10098500BB010DE58229F582E5833AF5830208D698
:100995005007E92582F8020A65BBFE07E92582F8BA
:1009A500020A77E58229F582E5833AF583020A8909
:1009B500BB0120E58229F582E5833AF583D0F0D0A5
:1009C500E0F8D0E0F9D0E0FAD0E0FBE8C0E0C0F014
:1009D50002090D5018E92582F8D083D082D0E0F9BC
:1009E500D0E0FAD0E0FBC082C083020A6EBBFE18DD
:1009F500E92582F8D083D082D0E0F9D0E0FAD0E0C2
:090A0500FBC082C083020A8022BA
:100A0E00D083D082F8E4937012740193700DA3A377
:100A1E0093F8740193F5828883E47374029368608B
:060A2E00EFA3A3A380DF8B
:100A3400E50E2582F582E50D3583F583B50D048534
:100A4400820E2210AF0685820EF50D2285820EF5E8
:040A54000DD2AF22EE
:0D0A5800E50E2582F582E50D3583F583223C
:102C1700EFB40A07740D122C22740A309811A89980
:102C2700B8130CC2983098FDA899C298B811F6301D
:072C370099FDC299F59922F5
:10227A00021DA2E493A3F8E493A34003F68001F2BB
:10228A0008DFF48029E493A3F85407240CC8C33365
:10229A00C4540F4420C8834004F456800146F6DF34
:1022AA00E4800B0102040810204080901914E47E97
:1022BA00019360BCA3FF543F30E509541FFEE49329
:1022CA00A360010ECF54C025E060A840B8E493A3F0
:1022DA00FAE493A3F8E493A3C8C582C8CAC583CA1B
:1022EA00F0A3C8C582C8CAC583CADFE9DEE780BED3
:011A3C0000A9
:090A6500E6FB08E6FA08E6F922B6
:090A6E00EBF608EAF608E9F622AD
:090A7700E2FB08E2FA08E2F922B0
:090A8000EBF208EAF208E9F222A7
:0C0A8900E493FB740193FA740293F922C9
:00000001FF
